:020000040800F2
:1000000000500020853F0008D73F0008D93F000876
:10001000DB3F0008DD3F0008DF3F00080000000074
:10002000000000000000000000000000E13F0008A8
:10003000E33F000800000000E53F0008E73F00083C
:10004000693F0008D53F0008D53F0008D1210008CE
:10005000D53F0008D53F0008D53F0008D53F000830
:10006000D53F0008D53F0008D53F0008D53F000820
:10007000D53F0008D53F0008D53F0008D53F000810
:10008000D53F0008D53F0008BD260008D53F000831
:10009000D53F0008D53F0008D53F0008D53F0008F0
:1000A000D53F0008D53F0008D53F0008D53F0008E0
:1000B000D53F0008D53F0008D53F0008D53F0008D0
:1000C000D53F0008D53F0008D53F0008D53F0008C0
:1000D000D53F000841440008D53F00084D440008C2
:1000E000D53F0008D53F0008D53F000800000000BC
:1000F0000000000000000000000000000000000000
:0C01000000000000000000005FF808F1A3
:1001100010B5054C237833B9044B13B10448AFF341
:1001200000800123237010BDE00A002000000000C1
:10013000EC91000808B5034B1BB103490348AFF32A
:10014000008008BD00000000E40A0020EC910008D7
:10015000034613F8012B002AFBD1181A0138704707
:1001600081F0004102E000BF83F0004330B54FEA68
:1001700041044FEA430594EA050F08BF90EA020FD5
:100180001FBF54EA000C55EA020C7FEA645C7FEA68
:10019000655C00F0E2804FEA5454D4EB5555B8BF8B
:1001A0006D420CDD2C4480EA020281EA030382EAFC
:1001B000000083EA010180EA020281EA0303362D8E
:1001C00088BF30BD11F0004F4FEA01314FF4801C61
:1001D0004CEA113102D0404261EB410113F0004F73
:1001E0004FEA03334CEA133302D0524263EB43032A
:1001F00094EA050F00F0A780A4F10104D5F1200EC8
:100200000DDB02FA0EFC22FA05F2801841F1000122
:1002100003FA0EF2801843FA05F359410EE0A5F1F6
:1002200020050EF1200E012A03FA0EFC28BF4CF027
:10023000020C43FA05F3C01851EBE37101F00045DD
:1002400007D54FF0000EDCF1000C7EEB00006EEBEA
:100250000101B1F5801F1BD3B1F5001F0CD3490874
:100260005FEA30004FEA3C0C04F101044FEA4452CB
:1002700012F5800F80F09A80BCF1004F08BF5FEA52
:10028000500C50F1000041EB045141EA050130BD32
:100290005FEA4C0C404141EB010111F4801FA4F1D5
:1002A0000104E9D191F0000F04BF01460020B1FA2A
:1002B00081F308BF2033A3F10B03B3F120020CDA62
:1002C0000C3208DD02F1140CC2F10C0201FA0CF040
:1002D00021FA02F10CE002F11402D8BFC2F1200CA5
:1002E00001FA02F120FA0CFCDCBF41EA0C0190405B
:1002F000E41AA2BF01EB0451294330BD6FEA0404A4
:100300001F3C1CDA0C340EDC04F11404C4F120028E
:1003100020FA04F001FA02F340EA030021FA04F3A0
:1003200045EA030130BDC4F10C04C4F1200220FAF7
:1003300002F001FA04F340EA0300294630BD21FA35
:1003400004F0294630BD94F0000F83F4801306BFFB
:1003500081F480110134013D4EE77FEA645C18BFEF
:100360007FEA655C29D094EA050F08BF90EA020F86
:1003700005D054EA000C04BF1946104630BD91EA7E
:10038000030F1EBF0021002030BD5FEA545C05D181
:100390004000494128BF41F0004130BD14F58004C0
:1003A0003CBF01F5801130BD01F0004545F0FE4134
:1003B00041F470014FF0000030BD7FEA645C1ABF69
:1003C000194610467FEA655C1CBF0B46024650EAA0
:1003D000013406BF52EA033591EA030F41F40021CC
:1003E00030BD00BF90F0000F04BF0021704730B552
:1003F0004FF4806404F132044FF000054FF0000127
:1004000050E700BF90F0000F04BF0021704730B5E7
:100410004FF4806404F1320410F0004548BF4042BC
:100420004FF000013EE700BF42004FEAE2014FEA11
:1004300031014FEA02701FBF12F07F4393F07F4FEC
:1004400081F06051704792F0000F14BF93F07F4F1E
:10045000704730B54FF4607401F0004521F0004161
:1004600020E700BF50EA010208BF704730B54FF0E7
:1004700000050AE050EA010208BF704730B511F0EC
:10048000004502D5404261EB41014FF4806404F124
:1004900032045FEA915C3FF4DCAE4FF003025FEAA6
:1004A000DC0C18BF03325FEADC0C18BF033202EB2E
:1004B000DC02C2F1200300FA03FC20FA02F001FA88
:1004C00003FE40EA0E0021FA02F11444C1E600BF27
:1004D00070B54FF0FF0C4CF4E06C1CEA11541DBFDA
:1004E0001CEA135594EA0C0F95EA0C0F00F0DEF8A5
:1004F0002C4481EA030621EA4C5123EA4C5350EA8A
:10050000013518BF52EA033541F4801143F48013DA
:1005100038D0A0FB02CE4FF00005E1FB02E506F06B
:100520000042E0FB03E54FF00006E1FB03569CF0C0
:10053000000F18BF4EF0010EA4F1FF04B6F5007FC6
:1005400064F5407404D25FEA4E0E6D4146EB060638
:1005500042EAC62141EA55514FEAC52040EA5E50C1
:100560004FEACE2EB4F1FD0C88BFBCF5E06F1ED86B
:10057000BEF1004F08BF5FEA500E50F1000041EBA2
:10058000045170BD06F0004646EA010140EA02004F
:1005900081EA0301B4EB5C04C2BFD4EB0C0541EA71
:1005A000045170BD41F480114FF0000E013C00F386
:1005B000AB8014F1360FDEBF002001F0004170BDAA
:1005C000C4F10004203C35DA0C341BDC04F11404C3
:1005D000C4F1200500FA05F320FA04F001FA05F24F
:1005E00040EA020001F0004221F0004110EBD3701C
:1005F00021FA04F642EB06015EEA430E08BF20EA48
:10060000D37070BDC4F10C04C4F1200500FA04F3EA
:1006100020FA05F001FA04F240EA020001F000417C
:1006200010EBD37041F100015EEA430E08BF20EAEF
:10063000D37070BDC4F1200500FA05F24EEA020E37
:1006400020FA04F301FA05F243EA020321FA04F066
:1006500001F0004121FA04F220EA020000EBD3701D
:100660005EEA430E08BF20EAD37070BD94F0000F1D
:100670000FD101F00046400041EB010111F4801F51
:1006800008BF013CF7D041EA060195F0000F18BF02
:10069000704703F00046520043EB030313F4801F3E
:1006A00008BF013DF7D043EA0603704794EA0C0FF8
:1006B0000CEA135518BF95EA0C0F0CD050EA41060E
:1006C00018BF52EA4306D1D181EA030101F000418B
:1006D0004FF0000070BD50EA410606BF10461946B3
:1006E00052EA430619D094EA0C0F02D150EA0136BF
:1006F00013D195EA0C0F05D152EA03361CBF104600
:1007000019460AD181EA030101F0004141F0FE419E
:1007100041F470014FF0000070BD41F0FE4141F422
:10072000780170BD70B54FF0FF0C4CF4E06C1CEA22
:1007300011541DBF1CEA135594EA0C0F95EA0C0FD7
:1007400000F0A7F8A4EB050481EA030E52EA033592
:100750004FEA013100F088804FEA03334FF08055B3
:1007600045EA131343EA12634FEA022245EA1115E0
:1007700045EA10654FEA00260EF000419D4208BF91
:10078000964244F1FD0404F5407402D25B084FEA3E
:100790003202B61A65EB03055B084FEA32024FF4EA
:1007A00080104FF4002CB6EB020E75EB030E22BF47
:1007B000B61A754640EA0C005B084FEA3202B6EB07
:1007C000020E75EB030E22BFB61A754640EA5C00B6
:1007D0005B084FEA3202B6EB020E75EB030E22BF46
:1007E000B61A754640EA9C005B084FEA3202B6EB47
:1007F000020E75EB030E22BFB61A754640EADC0006
:1008000055EA060E18D04FEA051545EA16754FEA67
:1008100006164FEAC30343EA52734FEAC2025FEA85
:100820001C1CC0D111F4801F0BD141EA00014FF014
:1008300000004FF0004CB6E711F4801F04BF0143E5
:100840000020B4F1FD0C88BFBCF5E06F3FF6AFAE01
:10085000B5EB030C04BFB6EB020C5FEA500C50F191
:10086000000041EB045170BD0EF0004E4EEA113114
:1008700014EB5C04C2BFD4EB0C0541EA045170BD1B
:1008800041F480114FF0000E013C90E645EA060E5F
:100890008DE60CEA135594EA0C0F08BF95EA0C0F8D
:1008A0003FF43BAF94EA0C0F0AD150EA01347FF4D5
:1008B00034AF95EA0C0F7FF425AF104619462CE7AC
:1008C00095EA0C0F06D152EA03353FF4FDAE10460F
:1008D000194622E750EA410618BF52EA43067FF460
:1008E000C5AE50EA41047FF40DAF52EA43057FF4F0
:1008F000EBAE12E74FF0FF3C06E000BF4FF0010CFB
:1009000002E000BF4FF0010C4DF804CD4FEA410C5E
:100910007FEA6C5C4FEA430C18BF7FEA6C5C1BD02B
:1009200001B050EA410C0CBF52EA430C91EA030FAC
:1009300002BF90EA020F0020704710F1000F91EA09
:10094000030F58BF994208BF90422CBFD8176FEAD7
:10095000E37040F0010070474FEA410C7FEA6C5CA5
:1009600002D150EA013C07D14FEA430C7FEA6C5CAC
:10097000D6D152EA033CD3D05DF8040B704700BFD8
:100980008446104662468C461946634600E000BF26
:1009900001B5FFF7B7FF002848BF10F1000F01BDF8
:1009A0004DF808EDFFF7F4FF0CBF012000205DF8C3
:1009B00008FB00BF4DF808EDFFF7EAFF34BF012048
:1009C00000205DF808FB00BF4DF808EDFFF7E0FFE1
:1009D00094BF012000205DF808FB00BF4DF808ED32
:1009E000FFF7CEFF94BF012000205DF808FB00BF99
:1009F0004DF808EDFFF7C4FF34BF012000205DF87B
:100A000008FB00BF4FEA410C7FEA6C5C02D150EA60
:100A1000013C0AD14FEA430C7FEA6C5C02D152EAF6
:100A2000033C02D14FF0000070474FF001007047C7
:100A30004FEA410212F5001215D211D56FF4787306
:100A4000B3EB625212D94FEAC12343F0004343EAA9
:100A5000505311F0004F23FA02F018BF4042704784
:100A60004FF00000704750EA013005D111F000400E
:100A700008BF6FF0004070474FF00000704700BFA4
:100A800053B94AB9002908BF00281CBF4FF0FF31F5
:100A90004FF0FF3000F07AB9ADF1080C6DE904CEEB
:100AA00000F006F8DDF804E0DDE9022304B0704749
:100AB0002DE9F0478C460E460446089D002B50D188
:100AC0008A4217466CD9B2FA82FEBEF1000F0BD0F3
:100AD000CEF1200C01FA0EF620FA0CFC02FA0EF709
:100AE0004CEA060C00FA0EF43A0CBCFBF2F9BBB26D
:100AF00002FB19CC09FB03FA4FEA144848EA0C46FA
:100B0000B2450AD9F61909F1FF3180F02581B245C5
:100B100040F22281A9F102093E44A6EB0A06B6FB87
:100B2000F2F002FB106600FB03F3A4B244EA0644B1
:100B3000A34209D9E41900F1FF3280F00B81A342EE
:100B400040F2088102383C440021E41A40EA09409E
:100B5000002D62D0002324FA0EF42C606B60BDE8F7
:100B6000F0878B4207D9002D55D0002185E8410040
:100B70000846BDE8F087B3FA83F1002940F08F8082
:100B8000B34202D3824200F2FC80841A66EB030671
:100B90000120B446002D40D085E81010BDE8F08754
:100BA00012B90127B7FBF2F7B7FA87FEBEF1000FC3
:100BB00035D10121F61B4FEA174C1FFA87F8B6FB17
:100BC000FCF20CFB126608FB02F0230C43EA06461B
:100BD000B04207D9F61902F1FF3302D2B04200F257
:100BE000D2801A46361AB6FBFCF00CFB106608FBE6
:100BF00000F8A3B243EA0644A04507D9E41900F17E
:100C0000FF3302D2A04500F2B9801846A4EB0804D5
:100C100040EA02409CE729462846BDE8F08707FAEB
:100C20000EF7CEF1200326FA03F24FEA174CB2FB7F
:100C3000FCF11FFA87F80CFB112206FA0EF620FAD7
:100C400003F301FB08F933431E0C46EA0246B145A3
:100C500000FA0EF409D9F61901F1FF3280F08C8008
:100C6000B14540F2898002393E44A6EB0906B6FB45
:100C7000FCF00CFB106200FB08F99EB246EA02464B
:100C8000B14507D9F61900F1FF3371D2B1456FD9DB
:100C900002383E44A6EB090640EA01418FE7C1F164
:100CA000200722FA07F88B4048EA030326FA07F4E4
:100CB0004FEA134EB4FBFEF91FFA83FC0EFB1944F6
:100CC0008E4020FA07F809FB0CFA48EA06084FEABA
:100CD000184646EA0444A24502FA01F200FA01F677
:100CE00008D9E41809F1FF3044D2A24542D9A9F14C
:100CF00002091C44A4EB0A04B4FBFEF00EFB1044F2
:100D000000FB0CFC1FFA88F848EA0444A44507D904
:100D1000E41800F1FF3E29D2A44527D902381C442B
:100D200040EA0940A0FB0289A4EB0C0CCC45C2466A
:100D3000CE4615D312D055B1B6EB0A036CEB0E06B6
:100D400006FA07F7CB401F43CE402F606E600021AC
:100D5000BDE8F0871046F7E68946DEE64645EAD26A
:100D6000B8EB020A69EB030E0138E4E77046D7E7F7
:100D700018468FE78146BDE7114676E702383C44C6
:100D800044E7084606E7023A3E442BE7704700BFB7
:100D900040F0BF60024B40F40030D860704700BFA5
:100DA00000ED00E010B5C2780378E2B1124AD168D4
:100DB0004278C943C1F30221C1F10404A2400F24C7
:100DC000807824FA01F101400A430C491201C81845
:100DD000D2B280F8002303F01F005A090123834098
:100DE00041F8223010BD01215A0903F01F0301FA16
:100DF00003F320320149F3E700ED00E000E100E0F9
:100E000008B5144B98420BD101214FF4007000F04B
:100E100007FA00214FF40070BDE8084000F000BA66
:100E20000D4B984208D101214FF4806000F0F8F991
:100E300000214FF48060EFE7084B984208D1012170
:100E40004FF4004000F0ECF900214FF40040E3E7DC
:100E500008BD00BF0024014000280140003C0140C3
:100E600043680A7923F4702323F4807343EA02234E
:100E70000A6810B5134343608A68CB6884681343DB
:100E8000084A224013434A7943EA420383600A7CBA
:100E9000C36A013A23F47003D2B243EA0253C36235
:100EA00010BD00BFFDF7F1FF836819B143F00103E6
:100EB0008360704723F00103FAE7C9B2436812B1B7
:100EC00019434160704723EA0101FAE7836843F060
:100ED0000803836070478068C0F3C0007047836870
:100EE00043F00403836070478068C0F3800070475C
:100EF000836819B143F4A0038360704723F4A0030F
:100F0000FAE7092970B51BD90726A1F10A04C568BB
:100F100004EB4404A64025EA060503FA04F42C4336
:100F2000C460062A18D81F24013A436B02EB8202E0
:100F3000944023EA040301FA02F21A43426370BDAB
:100F40000724056901EB4106B44025EA040503FACC
:100F500006F42C430461E4E70C2A0CD81F24073A5A
:100F6000036B02EB8202944023EA040301FA02F2CB
:100F70001A43026370BD1F240D3AC36A02EB82025A
:100F8000944023EA040391401943C16270BDC06CD0
:100F900080B270470368194214BF012000207047D7
:100FA000C943016070476FEA11210160704708B5BD
:100FB000012000F041F9BDE80840002000F03CB9F4
:100FC000002382B00193044B0193019B18440190CC
:100FD000019B196002B07047006C0040002382B092
:100FE0000193054B0193019B18440190019B1888C4
:100FF00080B202B0704700BF006C0040CB782DE992
:10100000F041DA0648BF8A780E8803F00F0548BF22
:10101000154316F0FF0F1AD000214FF0010E4FF0CC
:101020000F0C02680EFA01F737EA06040BD18C00A8
:101030000CFA04F822EA080205FA04F4282B42EA22
:10104000040225D1476101310829EBD10260FF2E4E
:101050001CD900214FF0010E4FF00F0C426801F136
:1010600008040EFA04F434EA06070BD18F000CFAD8
:1010700007F822EA080205FA07F7282B42EA0702D6
:101080000AD1446101310829E9D14260BDE8F0810B
:10109000482B08BF0761D6E7482B08BF0461F1E77A
:1010A0008368194214BF0120002070470028164AA7
:1010B00030B500F44015B4BFD3695368B5F5401F8F
:1010C00084B210D1556823F0706325F070655560C7
:1010D00019B1420D1201944023430B4A0028B4BFBA
:1010E000D361536030BDC2024DBF0322420D1201D5
:1010F000C0F303454CBFAA4004FA02F223EA0203FC
:1011000043F07063E4E700BF00000140014B18604A
:10111000704700BF20000E42034A536823F4404347
:1011200018435060704700BF001002400022064B79
:1011300001281A701A7002D0042802D07047187063
:10114000704705221A70704720100240024A136A45
:1011500018431062704700BF00100240014B186036
:10116000704700BF3C0442421C4A10B5536803F06C
:101170000C03042B01D0082B1FD0194B03605368BC
:10118000184CC3F30313E15C0368CB404360516820
:10119000C1F30221615C23FA01F181605168C1F35E
:1011A000C221615CCB40C36052680F49C2F38132F7
:1011B0008A5CB3FBF2F3036110BD53685168C3F35B
:1011C0008343CC0303F1020302D408494B43D5E720
:1011D00051688903F9D40249F8E700BF00100240C2
:1011E00000127A00040000200000002000093D00E9
:1011F000044B9A6911B110439861704722EA0000CC
:10120000FAE700BF00100240044BDA6911B1104345
:10121000D861704722EA0000FAE700BF00100240E0
:10122000044BDA6811B11043D860704722EA00001D
:10123000FAE700BF00100240014B1860704700BF82
:10124000400442424209012A074B07D11B6800F0C3
:101250001F0023FA00F000F001007047022A0CBFC3
:101260001B6A5B6AF3E700BF00100240024A536A40
:1012700043F080735362704700100240044A1388A1
:101280009BB211B118431080704723EA0000FAE7BF
:1012900000280040034A93889BB243F010039380D8
:1012A000704700BF00280040034A938823F01003D2
:1012B0001B041B0C93807047002800400749088BD3
:1012C00083B2888B0A8B80B292B293421DBF888B07
:1012D00080B240EA024040EA0340704700280040E4
:1012E00008B5FFF7D7FF044B020C80B21A8398832E
:1012F000BDE80840FFF7D8BF0028004008B5FFF759
:10130000C9FF054BC0F3034280B21A819881BDE842
:101310000840FFF7C9BF00BF00280040024A938879
:101320009B06FCD5704700BF00280040054A938803
:1013300023F008031B041B0C938093881B07FCD528
:10134000704700BF00280040064B9A881B8892B265
:10135000034005D01040C0B2003018BF01207047D4
:101360001846704700280040034A93889BB223EA3E
:1013700000009080704700BF00280040224A038888
:1013800090429BB212D002F5006290420ED0B0F1B2
:10139000804F0BD0A2F59832904207D002F58062C0
:1013A000904203D002F58062904203D14A8823F034
:1013B00070031343154A904208D002F580629042B0
:1013C0001FBF23F44073CA889BB2134303808B88EA
:1013D00083850B8803850C4B98420FD003F500637F
:1013E00098420BD003F54063984207D003F5806321
:1013F000984203D003F58063984201D10B7A0386AB
:1014000001238382704700BF002C01400010004080
:10141000038821B19BB243F001030380704723F09E
:1014200001031B041B0CF8E783899BB212B119431B
:101430008181704723EA0101FAE7FFF7F5BFC9434D
:1014400089B201827047000030B50D460446038A18
:101450008A899BB2C98823F440530B430382838952
:10146000A98823F4B05323F00C031B041B0C0B437B
:10147000298987B00B4369890B439BB28381838A97
:101480009BB223F440731343838201A8FFF76CFEE1
:10149000174A039B0499944218BF19461922A3893D
:1014A0004A4313F4004F2B684FF0640514BF5B00F0
:1014B0009B00B2FBF3F1B1FBF5F3A2891801120412
:1014C00005FB13130BD5DA003232B2FBF5F202F052
:1014D000070242EA00039BB2238107B030BD1B0123
:1014E0003233B3FBF5F303F00F030343F3E700BF1D
:1014F00000380140838921B19BB243F400538381BA
:10150000704723F400531B041B0CF8E701F01F0382
:1015100010B5C1F342140121012C01FA03F105D1E8
:101520000C3003683AB11943016010BD022C0CBFA6
:1015300010301430F5E723EA0101F5E7C1F30801A3
:10154000818070478088C0F3080070470388194283
:1015500014BF012000207047C94389B20180704741
:101560000123C1F3421210B5012A01F01F0403FA4E
:1015700004F30ED1828992B21340028892B26BB109
:101580000123090A03FA01F10A4214BF1846002098
:1015900010BD022A0CBF028A828AECE7184610BDF1
:1015A0000B0A01219940C94389B2018070470000AC
:1015B000024B00F07F001860704700BF002C004015
:1015C0000022014B9A607047002C00400139014411
:1015D000884200D3704703780A7800F8012B01F89D
:1015E0000139F5E72DE9FF4102339CB2EF238DF875
:1015F0000430012388468DF80530036917461A0E1A
:101600008DF806201A0C250A8DF807201A0A8DF885
:1016100009308DF80A1043688DF80B508DF80C4096
:1016200006468DF80820092101A89847E3B21D4419
:101630004544ADF802500025023C05F10108EDB229
:10164000A5424FF0010173680ADB0DF103009847D2
:10165000736801210DF10200984704B0BDE8F081E4
:10166000781998477B5DBDF8022045461344ADF8D4
:101670000230E2E72DE9F04F0026DFF8B88187B0AD
:1016800003938DF81360D8F800300446019102925C
:101690009847B34682463546B146002720E0052FDD
:1016A0001ED8DFE807F0032B4A5F86ABA368984794
:1016B000B0B1604B4FEA09291B68984723688246FE
:1016C000012105A898479DF814301FFA89F949EAC5
:1016D00003094EF60173994502D14FF00009012725
:1016E000544B1B689847A0EB0A00B0F5FA6FD6D3AD
:1016F000514802F08FFF4FF0FF3096E0A368984703
:101700000328EDD9D8F80030984723680421824691
:1017100004F128009847218D94F82A3049BA89B2FB
:1017200043EA012394F82B1041EA032123699942EB
:101730007ED0424802F0F6FEAFE7A3689847002843
:10174000CED0D8F8003098472368824601210DF1A9
:10175000130098479DF81330039A1FFA83FB137008
:101760000327BDE7A36898470128B9D9D8F8003006
:10177000984723688246022104F128009847258D66
:1017800094F828306DBAADB2B5F5817F05D8109ABE
:1017900032B9029A0232954202DD29462848C9E749
:1017A00094F829202E4613449B441FFA8BFB0427F0
:1017B00096E7022E20D9A3689847002890D01D4BA9
:1017C0001B68984723688246012105A89847109B0B
:1017D00053B1012105A898479DF81430013E9B4460
:1017E0001FFA8BFBB6B27BE7019A9DF81430137099
:1017F000134601330193EFE7052771E7A368984784
:1018000001287FF66DAFD8F8003098470221824654
:10181000236805A89847BDF8141049BA89B28B45CA
:1018200001D0084886E7A81E00B207B0BDE8F08FD7
:10183000022755E7FC0A0020959200084B92000809
:10184000649200087C920008002230B585B004AB99
:1018500003F8012D0D46009200F1280121220446D3
:10186000FFF708FF002808DB9DF80F10072906D0B6
:10187000064802F057FE6FF0010005B030BD94F845
:10188000283001382B7000B2F7E700BFAB92000898
:101890000246012313B502F8283F19460446FFF714
:1018A000A1FE002302A901F8013D2046FFF7CCFF6D
:1018B0000028A8BF9DF8070002B010BD022313B591
:1018C00000F1280280F8283080F829100121044610
:1018D000FFF788FE002302A901F8013D2046FFF72B
:1018E000B3FF0028A8BF9DF8070002B010BD024654
:1018F000052313B502F8283F012319460446FFF7D4
:1019000071FE002302A901F8013D2046FFF79CFF6C
:101910000028A8BF9DF8070002B010BD062313B52C
:1019200080F828300B0A80F8292080F82A3000F14E
:10193000280280F82B10042301210446FFF752FEF1
:10194000002302A901F8013D2046FFF77DFF002892
:10195000A8BF9DF8070002B010BD000073B5067D5A
:1019600004460D466EB1002965D000F118032834F5
:1019700053F8042BA34245F8042BF9D1002002B000
:1019800070BD02460F2302F8283F01231946FFF7D6
:1019900029FE02A901F8016D2046FFF755FF002836
:1019A000EDDB9DF807300BB118B2E8E7102806D040
:1019B0000146224802F0B6FD6FF00100DFE704F1B6
:1019C0001806324604F1290304F1390153F8040BD7
:1019D0008B4242F8040BF9D102213046FFF7F6FDA5
:1019E000022104F11A00FFF7F1FD022104F11C00AD
:1019F000FFF7ECFD022104F11E00FFF7E7FD0421D3
:101A000004F12000FFF7E2FD022104F12400FFF7BA
:101A1000DDFD022104F12600FFF7D8FD45B1304677
:101A200006F1100350F8042B984245F8042BF9D125
:101A30009DF80700A3E70846A1E700BF1092000841
:101A400073B51D4D04462960884706462B689847A4
:101A5000801BB0F57A7FF9D31323002584F8283052
:101A6000E36801211A0E84F829201A0C84F82A2030
:101A70001A0A84F82B2084F82C3004F1280205235C
:101A80002046FFF7AFFD02A901F8015D2046FFF7F0
:101A9000DBFEA8420CDB9DF807304BB9217D49B92C
:101AA0002046FFF75BFFB0FA80F0400902B070BD3E
:101AB0002846FBE70120F9E7FC0A0020F0B50129E0
:101AC00085B00D4614461E460A9F1ED011B1002057
:101AD00005B0F0BD00920A460DF10F03FFF7CAFDF5
:101AE00000284FF0000404DC01460F4802F01AFD04
:101AF000EDE79DF80F303470022B0DD0082BE6D1A6
:101B0000012D0BD001203070E2E700233A882146F6
:101B100000930DF10F03E1E7012D02D1082B38806E
:101B2000F0D00120D4E700BF31920008082313B59C
:101B300000F1280280F8283080F8291002230121C2
:101B40000446FFF74FFD002302A901F8013D20469E
:101B5000FFF77AFE0028A8BF9DF8070002B010BD6D
:101B60000C2313B580F828300B0A80F82930130AAB
:101B700080F82A1080F82B3080F82C20052300F103
:101B8000280201210446FFF72DFD002302A901F8D8
:101B9000013D2046FFF758FE0028A8BF9DF807002A
:101BA00002B010BD02460D2313B502F8283F0123F1
:101BB00019460446FFF716FD002302A901F8013D6E
:101BC0002046FFF741FE0028A8BF9DF8070002B09D
:101BD00010BDF7B5154604220027044680F82930C9
:101BE000838B80F828201A0A80F82C2080F82D306A
:101BF00000F1280280F82A7080F82B7006230E4628
:101C00000121FFF7EFFC02A901F8017D2046FFF753
:101C10001BFE002803DB9DF8072012B110B203B0B1
:101C2000F0BD042811D194F8293010461B023380EE
:101C300094F82A100B43338094F82B301B022B802E
:101C400094F82C100B432B80E9E76FF00100E6E7D6
:101C5000014B1868704700BF000B0020014802F0DC
:101C6000EABB00BF4C0200200A460146014802F0D0
:101C7000CDBB00BF4C0200200A460146014802F0DD
:101C80008ABB00BF4C020020034B19681A68521A25
:101C90008242FBD3704700BF000B00204FF080430F
:101CA00000229A849A8C92B28242FBD370471FB56D
:101CB00001210846FFF7A8FA47230024ADF80430B5
:101CC0004FF6FF7301A94FF08040ADF80830ADF832
:101CD0000640ADF80A408DF80C40FFF74FFB01219C
:101CE0004FF08040FFF7ABFB224601214FF08040D0
:101CF000FFF7A3FB1C238DF80030072368468DF8FF
:101D000001308DF802408DF80340FFF74BF80121B8
:101D10004FF08040FFF77CFB04B010BD082210217B
:101D200038B5284B05461A61196140215961802157
:101D300059614FF4807159614FF400710209100725
:101D4000596148BF1961540744BF4FF4807119614C
:101D5000900744BF8021196112F0010F18BF402382
:101D6000184C4FF0020018BF2361FFF78DFF1023BE
:101D70006361236140236361802363614FF4807357
:101D800063614FF400732907636148BF236115F055
:101D9000040F18BF4FF480720A4B0A4C18BF1A6127
:101DA000AA0744BF80221A6115F0010F18BF402313
:101DB0004FF0020018BF2361FFF766FF1023636135
:101DC00038BD00BF000C01400822102138B5284B57
:101DD00005465A61196140215961802159614FF4CA
:101DE000807159614FF4007102091007596148BFB1
:101DF0001961540744BF4FF480711961900744BFC3
:101E00008021196112F0010F18BF4023184C4FF0C8
:101E1000020018BF2361FFF737FF102363612361BE
:101E200040236361802363614FF4807363614FF4E7
:101E300000732907636148BF236115F0040F18BFC1
:101E40004FF480720A4B0A4C18BF1A61AA0744BFAC
:101E500080221A6115F0010F18BF40234FF00200D5
:101E600018BF2361FFF710FF1023636138BD00BF67
:101E7000000C01400120FFF7A7BF002310B5037538
:101E8000441E14F8010F00B910BDFFF747FFF8E733
:101E90000138032808B509D8054B185C0844FFF73A
:101EA00093FFBDE808400320FFF7EEBE08BD00BF6A
:101EB000E392000810B51446FFF7EAFF2046BDE89C
:101EC0001040FFF7DABF000010B56420FFF7DCFE1A
:101ED000054C14F8010F00B910BDFFF775FF052080
:101EE000FFF7D2FEF5E700BFDB920008202270B5B5
:101EF0000D46002488B011460646684602F009FBEC
:101F000028468DF81440FEF723F9C0F11403C3F3FB
:101F10004703024629460DEB030002F0EFFA6A463A
:101F200021463046FFF7C6FF08B070BD70B51646B3
:101F300004460D4688B020220021684602F0E9FAE6
:101F40003146684602F0A1FB6A4629462046FFF763
:101F5000B1FF08B070BD08B50020FFF735FF0D20B8
:101F6000FFF732FFBDE808400320FFF78DBE08B53C
:101F70000020FFF729FF0C20FFF726FFBDE80840EF
:101F80000320FFF781BE00003C23F0B5B1FBF3F462
:101F900003FB14120270B4FBF3F203FB1243437011
:101FA0004FF461631824B1FBF3F3B3FBF4F204FBC9
:101FB0001233364C8370B1FBF4F40723A21DB2FB3D
:101FC000F3F3C3EBC303D31A0022C3704FF4C875F5
:101FD000134640F26D1E642613F0030705D1B3FBD0
:101FE000F6F106FB1131002946D1B3FBF5F105FBF3
:101FF000113100290CBF4FF4B77171460A44944265
:1020000038D283712FB96425B3FBF5F105FB11318B
:10201000A9BB4FF4C875B3FBF5F105FB11310029DD
:1020200040F26D1108BF4FF4B771521AA11A642221
:102030004FF4C874B3FBF2F602FB1636B3FBF4F2AE
:1020400004FB12330122124D022A1BD107B9DEB95B
:10205000002B0CBF1D241C248C4207D80132D2B2A5
:102060000D2AA1EB040105F10105EDD10131427109
:102070000171F0BD0133AFE74FF4B771BEE74FF424
:10208000B771D2E72C78E7E71D24E5E7805101001E
:10209000C1970008F0B5002564268279234B97B2DA
:1020A0005343A9B2B94220D36424B2FBF4F104FB38
:1020B0001121002446791E4FDFF878E0C9B202F002
:1020C000030CA5B2AE421FD83C24457881786C43FE
:1020D0004FF4616505FB014102790078013A08443B
:1020E000144901FB02001844F0BD8C0705D1B1FB77
:1020F000F6F406FB1414A4B204B919B903F5A83315
:1021000003F5C0730135CCE7012D0AD1BCF1000FF6
:1021100007D101B92AB903F5181303F56E53013439
:10212000CFE7E55D0EFB0533F9E700BF8033E10142
:10213000C097000880510100030903EB830300F0FE
:102140000F0000EB4300C0B2704708B50139421ED2
:1021500001448A4200D108BD5078FFF7EDFF02F834
:10216000010FF6E710B50446FFF7D8F8082120461E
:10217000FFF7EBFF2046FFF78DFFFFF7B1F8BDE853
:102180001040FFF7CBB8000007B502466B46516818
:10219000006803C36846FFF7E5FF4AF2A551042033
:1021A000FEF70EFF0022024B9A7203B05DF804FBAB
:1021B000640B002007B56B46044A1068516803C3DE
:1021C0006846FFF7CFFF03B05DF804FBFD930008FE
:1021D00008B50120FFF7B8F898B10120FFF7C4F85F
:1021E000084A138801339BB23B2B81BF0023138025
:1021F0000122054B94BF13801A70BDE80840FFF719
:102200008DB808BD0C0B0020180B002008B501216B
:102210004FF0C050FEF7F8FF0120FEF777FFFEF702
:10222000C6FE0120FEF782FF4120FFF70BF80028D1
:10223000FAD04FF48070FEF789FF0120FEF78EFF81
:10224000FFF774F8FFF76AF801210846FFF716F860
:10225000FFF764F847F6FF70FFF750F8BDE8084055
:10226000FFF75CB807B54FF4C060FEF791FD03239C
:1022700000228DF80430012301A88DF805308DF877
:1022800006208DF80730FEF78DFD03B05DF804FBE6
:1022900010B501214FF0C050FEF7B6FF0120FEF748
:1022A00035FFFFF7DFFF0420FEF798FE4AF2A55343
:1022B000984208D0FFF7AAFF0424FFF77BFFFEF740
:1022C000D5FF204610BD7B20FEF7BCFF10B97A2059
:1022D000FEF7B8FFFFF72AF801210846FEF7CEFF08
:1022E0000024FFF71BF8EAE70A20FFF7D7BC00003D
:1022F00008B50146FFF7F8FF044B022221B11A612D
:10230000BDE80840FFF7F0BF5A61F9E7000C014053
:1023100008B5032306490B61FFF7E6FF01234B6174
:10232000FFF7E2FF02234B61BDE80840FFF7DCBF87
:10233000000C014010B5012406490C61FFF7D4FFE1
:102340004C61FFF7D1FF02230B61FFF7CDFF0C615A
:1023500010BD00BF000C01400223012010B5064C47
:1023600063612061FFF7C4FFA4680020FFF7C0FF8E
:1023700004F0010010BD00BF000C014008B50122AF
:10238000064B40B11A610120FFF7B2FFBDE80840DB
:102390000020FFF7ADBF5A61F5E700BF000C014018
:1023A000022238B5094B05465A61FFF79DFF082404
:1023B00005F08000013CFFF7E1FF6D0014F0FF0421
:1023C000EDB2F5D1BDE83840FFF7C6BF000C0140C3
:1023D0000122F8B5074608250024114E326101207C
:1023E000FFF786FFB3686400DB07E4B24FF000003C
:1023F00005F1FF3548BF44F00104FFF779FF15F000
:10240000FF05ECD1064B012247B95A610120FFF7C5
:102410006FFF0020FFF76CFF2046F8BD1A61F5E75B
:10242000000C014038B505461424FFF771FF28461B
:10243000FFF7B6FF40B14FF47A70013CFFF72EFC76
:1024400014F0FF04F1D1012038BD2DE9F84307460F
:102450000E4614469846BDF82050ED0902EBC5150E
:10246000ADB2AC4202D10020BDE8F883FFF750FFC7
:102470003846FFF795FF10B10220BDE8F883B8F1A8
:10248000010F18D0E0B2FFF78BFF0028F4D106F15E
:10249000800916F8010BFFF783FF0028ECD14E45A9
:1024A000F7D1FFF747FF3846FFF7BCFF0028E3D11D
:1024B0008034A4B2D5E7200AFFF772FF0028E1D0EC
:1024C000DAE72DE9F04106460F4614469846BDF876
:1024D00018501544ADB2AC4202D10020BDE8F081E5
:1024E000FFF716FF3046FFF75BFF10B10220BDE893
:1024F000F081B8F1010F14D0E0B2FFF751FF0028CE
:10250000F4D117F8010BFFF74BFF0028EED1FFF7CE
:1025100011FF3046FFF786FF0134A4B20028DAD05D
:10252000E4E7200AFFF73CFF0028E5D0DEE72DE9CD
:10253000F3479DF82C6081460D4690469A46BDF8BB
:1025400028409EBBFFF7E4FE4846FFF729FF28BB63
:10255000BAF1010F1CD05FFA88F0FFF721FFE8B94C
:10256000FFF7D6FE49F00100FFF71AFF0646A8B9AB
:102570002C44A4B2631B9BB2012B11D80120FFF79E
:1025800027FF2870FFF7D6FE304602B0BDE8F0877F
:102590004FEA1820FFF704FF0028DCD00126F3E7FC
:1025A0000020FFF715FF05F8010BE3E7012E33D1FB
:1025B00012F07F0F20D1631E7E2B13D924F07F07EA
:1025C000BFB200975346424629464846FFF73DFFB3
:1025D00006460028D8D114F07F04D5D0B8441FFA9D
:1025E00088F83D4453464246294648460A9402B07C
:1025F000BDE8F047FFF765BF04F07F070097FFF7DE
:1026000060FF06460028BFD124F07F04B844A4B27E
:102610001FFA88F83D44CEE70226B5E730B4BDF88E
:1026200008409DF80C5024B10395029430BCFFF78C
:102630007EBF204630BC7047142337B503258DF884
:1026400007300123064C01A920468DF80630ADF86D
:102650000450FEF7D3FC2561FFF746FE03B030BD02
:10266000000C014010B5064C4FF4087120460022C2
:10267000FEF723FC2046BDE810400021FEF738BCE1
:102680000024014008B5C1B2022301220A48FEF726
:1026900038FC02210848FEF783FC01210648FEF7BA
:1026A00027FC02210448FEF775FC0028F9D00248F7
:1026B000BDE80840FEF76BBC002401404FF40871F0
:1026C0000148FEF770BC00BF0024014030B54FF454
:1026D000004087B0FEF720FD01214FF40070FEF7A7
:1026E00087FD1D48FEF78CFB012400234FF4602278
:1026F00001A9194801938DF808308DF8093003922B
:1027000004938DF81440FEF7ABFB13482146FEF707
:10271000CBFB1148FEF7DAFB0F48FEF7DCFB002885
:10272000FAD10D48FEF7DBFB0B4D2846FEF7DCFB2C
:1027300004460028F9D1FFF795FF12238DF80030E9
:10274000022368468DF801308DF802408DF8034071
:10275000FEF728FB07B030BD00240140032307B576
:10276000ADF80430002301A903488DF80730FEF7C7
:1027700045FC03B05DF804FB000801402DE9F04181
:10278000002407460E462546DFF81C80B44203D1DC
:10279000B5FBF4F0BDE8F08158F82700FFF772FFB1
:1027A00001340544F2E700BFC092000808B51021CB
:1027B0000348FEF775FC00280CBF0420052008BD67
:1027C0000008014010B505210020FFF7D7FFA0F554
:1027D0000063002B144CB8BF5B42B3F5007F606010
:1027E00014DA0120FFF750FA05210120FFF7C6FF98
:1027F000A0F50063002BB8BF5B42B3F5007FE0603B
:102800000FDA0120FFF740FA052010BD0023B0F5D4
:10281000006F4FEA4303054A98BF013352F8230083
:1028200010BD0123F3E700BF740B0020C89200081D
:1028300008B5FFF7BBFF052803D1BDE80840FFF747
:10284000C1BF08BD07220B4B4FF6FF711A704FF442
:1028500000500022D98008491A725A705A72DA70F0
:102860001A719A8148614FF480504861DA81FFF70C
:102870007EBB00BF640B0020000C014008B5FFF7D1
:10288000F9FABDE8084002490120FFF72FBB00BF5D
:1028900050950008F8B50024124E134DF77805EB5B
:1028A0008705043D3B19DBB2062B09D80134E4B29D
:1028B00055F8042F00212046FFF738FB042CF1D1F6
:1028C00070780A4A00F0030001300021FFF72EFB68
:1028D0007078042805D1BDE8F840054A0021FFF7CB
:1028E00025BBF8BD640B002020000020CD97000818
:1028F000CF9700080C4B5A78062A07D8DFE802F079
:102900000407090B0D0F110000221A7070470122F5
:10291000FBE70222F9E70322F7E70422F5E70522A5
:10292000F3E70622F1E700BF640B002008B5094A6F
:1029300053786BB1013BDBB2032B53708CBF042384
:102940000023D370FFF7A6FFBDE80840FFF7D2BF12
:1029500008BD00BF640B002008B5094A5378052B59
:102960000DDC0133DBB2032B537094BF002304232F
:10297000D370FFF78FFFBDE80840FFF7BBBF08BD6E
:10298000640B00202DE9FF41002305460C46174645
:102990001E464FF0010803702B78BB4203D3002082
:1029A00004B0BDE8F081012322460196CDF80080F5
:1029B0000DF10F01A020FFF731FE9DF80F30073415
:1029C000A4B21BB12B7801332B70E5E70120E7E7B8
:1029D0002DE9F04100240D4627464FF0070888B046
:1029E00006461822002102A801F093FD2C7002A9CE
:1029F0000197CDF8008001232246A020FFF70EFEAC
:102A000002A9304601F049FE28B92B78073401337A
:102A10002B70A4B2EBE7012008B0BDE8F08107B548
:102A200000230722C1EBC1018DE80C008AB201230B
:102A30000146A020FFF77BFD03B05DF804FB00001A
:102A40004FF40052034B1A6142F21072024BDA81CA
:102A5000704700BF000C0140640B00202DE9F041DD
:102A60001746002205460E464FF0FF300E4CDFF8A9
:102A70003C80A281A389BB4201D3BDE8F0814046DE
:102A8000FEF706FF0028F5D101210848FEF716FFE2
:102A900008B1BDE8F08132462946BDE8F041012386
:102AA0000248FFF796B800BF640B00208C0B002093
:102AB0002DE9F047002405460F4690469946A24668
:102AC0002A4E348033889BB24B4502D30020BDE8A8
:102AD000F087FFF7ADFE04281AD8DFE800F0031DE9
:102AE000372241000134E4B2092C28BF092404F143
:102AF000300305F80A302A4600213846FFF7DAF994
:102B0000D04505D951463846FFF7C2F9FFF723FAF9
:102B1000FA20FFF7B9F8D5E7002CE8D0013CE4B281
:102B2000E5E701F0CBFC15F80A30184443785B0761
:102B3000EED50AF101034345EADA5FFA83FA15F8A4
:102B40000A40002CD7D0303CE4B2D4E7BAF1000FF1
:102B5000DED00AF1FF3A5FFA8AFA15F80A40F2E786
:102B6000FA20FFF791F80120BDE8F087040B002060
:102B70000A4608B501460248FEF7F2FF80B208BDDA
:102B80008C0B002030B587B018220021684601F078
:102B9000C0FCFFF76FF922490120FFF7A7F9214A8E
:102BA00000210320FFF7C2F900210420FFF770F98C
:102BB000FFF7D1F90422032311466846FFF778FF97
:102BC00001280446184D17D0FFF754F9FFF7CFF945
:102BD00016490120FFF78AF915490320FFF786F906
:102BE00040F6B830FFF750F8FFF72CFEFFF742F938
:102BF000012300242B7105E00E49684601F04DFDCC
:102C000018B1EC72204607B030BDFFF733F9FFF77B
:102C1000AEF909492046FFF769F90849DDE700BF29
:102C2000E7920008F3920008640B0020FD92000870
:102C30000B9300081C9300082193000831930008AF
:102C4000F0B5454F8BB0FA7A002A4CD000241822F8
:102C5000002104A801F05DFCADF80E40FFF70AF971
:102C60003E4A21460120FFF761F921460320FFF784
:102C70000FF9FFF770F904230722032104A8FFF7D7
:102C800017FF0128054634D104A8FDF761FA07288B
:102C900006465AD10DF10E0104A8FFF799FE01284E
:102CA000044647D1FFF7E6F8FFF761F92146BDF882
:102CB0000E00FFF75DFF054628BB0146182204A859
:102CC00001F027FCBDF80E2004A9C2EBC20201945A
:102CD0000096234692B2A020FFF7A0FC2046204990
:102CE000FFF704F91BE0FFF74DFF0128AED00BB052
:102CF000F0BDFFF7BFF8FFF73AF901201949FFF7D8
:102D0000F5F819491FE019492046FFF7EFF818496F
:102D10000320FFF7EBF82946164801F003FC40F6C4
:102D2000B830FEF7B1FFFFF78DFDFFF7A3F80123E1
:102D30003B71DCE7FFF79EF8FFF719F90E492846CB
:102D4000FFF7D4F80D490320CAE7FFF793F8FFF720
:102D50000EF90B492846D2E7640B00209294000834
:102D6000BA940008A69400080B930008CC940008BD
:102D700031930008DE940008F094000800950008E4
:102D80000F95000830B5344C89B01822002102A8F4
:102D900001F0BFFBE27AFAB1FFF76CF8FFF7E7F852
:102DA0002E4A00210120FFF7C1F84FF4FA60FEF728
:102DB0006BFF47F230520DF1060101A8FFF74EFEFE
:102DC0000546FFF757F86DB1FFF754F8244801F0B6
:102DD00021FC244901203BE0FFF7D4FE0128DBD091
:102DE000012031E0BDF804101F4801F09BFBBDF845
:102DF0000410B1F57A7F29D202A8FFF710FE014630
:102E00001A4801F08FFB02A8FDF7A2F90728DBD1D1
:102E1000174902A801F02AFC02AA29460120FFF75F
:102E200049F802A9134801F07DFB4FF4FA60FEF760
:102E30002BFF40F6B830FEF727FFFFF703FDFFF743
:102E400019F801230020237109B030BD02200A497E
:102E5000FFF74CF8EDE700BF640B0020B6980008C0
:102E6000FA9800080B990008CB980008D59800083C
:102E7000C3930008F8930008EC98000870B588B078
:102E8000FFF780FE0128054645D1FEF7F3FFFFF767
:102E90006EF822492846FFF729F821490320FFF759
:102EA00025F82048FEF77EFE0446C0B11E4801F01A
:102EB000B1FB1E492846FFF719F803201C49FFF70C
:102EC00015F840F6B830FEF7DFFEFFF7BBFCFEF763
:102ED000D1FF01220020174B1A7108B070BD0146C6
:102EE000182202A801F015FB0726012322460195AE
:102EF000009602A9A020FFF791FB41F65833073452
:102F0000A4B29C42F1D1FEF7B5FF0B4801F082FB61
:102F10000A490120D3E70120DFE700BF059400083C
:102F2000189400088C0B002027940008489400088F
:102F30005A940008640B0020679400087D940008F0
:102F4000482307B58DF807300323ADF8041001A915
:102F50008DF80630FEF752F803B05DF804FB10233D
:102F600073B58DF8073003230C461646ADF80410F0
:102F700001A905468DF80630FEF740F8012E0CBF7A
:102F80002C616C6102B070BD10B5114C012220465D
:102F90001021FFF7E4FF204601220821FFF7DFFFA1
:102FA000204600224021FFF7DAFF20460022802140
:102FB000FFF7D5FF204600224FF48071FFF7CFFFC7
:102FC0002046BDE8104000224FF40071FFF7C7BF54
:102FD000000C014001211D20FEF70AB9044B5A687C
:102FE00022F0E0625A605A6842F080625A6070478C
:102FF0000000014008B501F079F84FF47A72084BEF
:10300000F0211B68B3FBF2F3064A013B5360064B09
:1030100083F82310002393600723136008BD00BFCB
:103020006C04002010E000E000ED00E008B54FF473
:10303000E1310B4801F0D4F84FF46141094801F047
:10304000CFF84FF0FF32084B1A610022DA601A7590
:10305000064A9A60064A1A60064A5A6008BD00BFCE
:103060003C0000204C0200208C0B00205D1C00085E
:10307000691C0008791C000810B51C490120FEF7E6
:1030800035FF4FF47A70FEF7FFFD19491948FEF736
:10309000D7FCE0B1184C17482146FEF75FFC1748F3
:1030A00001F0B8FAA188164801F03CFAA289154B44
:1030B000154833F8121001F035FA01201349FEF7D4
:1030C00015FFBDE810404FF47A70FEF7DDBD1048E3
:1030D00001F0A0FAFEF7CEFE01200E49FEF706FF32
:1030E0004FF47A70FEF7D0FDFEE700BFD1950008DF
:1030F000511C00088C0B0020540B0020E3950008A5
:10310000FE950008089200080D9600082196000818
:103110002A9600084E960008F0B5A3B001284FF09B
:1031200080024FF0000102A80CBFA025A2250024B8
:1031300001F0EFF901278026E20192B28DE8C0008C
:10314000012302A928460134FFF768FAB4F5007F8D
:10315000F2D123B0F0BD000070B5044686B0102255
:10316000002102A801F0D5F9FEF784FE4D490120A7
:10317000FEF7BCFE4C490320FEF7B8FE40F2DC50DF
:10318000FEF782FDFEF776FE012C2FD1474920463F
:10319000FEF7ACFE44490320FEF7A8FEA02540F24E
:1031A000DC50FEF771FD0722002302A98DE80C0018
:1031B000284601234FF68072FFF7B9F90646FEF75D
:1031C00059FEEEB1012C0CBF39493A490120FEF7F6
:1031D0008DFE39490320FEF789FE384B384853F8F5
:1031E000261001F09FF94FF4FA6037E035490120CD
:1031F000FEF77CFE2C490320FEF778FEA225CEE7E1
:10320000314902A801F049FA98BBFEF733FE012CC0
:103210000CBF2E492E490120FEF768FE2D490220E1
:10322000FEF764FE20490320FEF760FE2046FFF70C
:1032300073FF0124072328468DE818004FF680729B
:1032400023462149FFF773F90546FEF713FE4DB9F2
:1032500020462149FEF74AFE4FF47A70FEF714FD2E
:1032600006B070BD154B204653F82510FEF73EFE04
:10327000FEE7012C0CBF194919490220FEF736FE62
:1032800040F2DC50FEF700FDFEF7F4FD154902A800
:1032900001F0ECF902A90120FEF728FE02A912486C
:1032A0009FE700BF42930008189400085493000859
:1032B0007293000881930008909300081400002086
:1032C000A393000863930008B09300087993000863
:1032D00088930008B8930008CA930008D8930008A0
:1032E000E2930008C3930008EC93000808B501209E
:1032F000FFF732FFBDE808400220FFF72DBF0000B6
:1033000010210148FFF71CBE0008014008B5FFF777
:1033100025FABDE80840FFF7D9B908B5FFF734FE34
:10332000BDE80840FEF7D0BD08B507490120FEF70B
:10333000DDFD03200549FEF7D9FDBDE8084041F257
:103340008830FEF7A1BC00BFE4970008189400087D
:1033500010B50A4C002220464FF48051FFF7FFFDC4
:10336000204600224FF40051FFF7F9FDBDE8104060
:1033700001224FF400510248FFF7F1BD000C01405B
:1033800000100140F8B50546FEF774FD01214E4AD4
:103390000846FEF7CBFD4D4801F03CF94FF47A703A
:1033A000FEF772FC4A4F4B4E3846FEF771FA044660
:1033B00040B10228F8D00146304601F0B3F8002CA5
:1033C000F2D102E0444801F025F901214048FEF71E
:1033D00075FA014600284DD1404801F01BF9FEF76F
:1033E00049FD3F490120FEF781FD3E4801F012F9F9
:1033F0004FF4FA60FEF748FC354E3046FEF748FAC7
:1034000004460A20FEF740FC022CF6D1FEF732FDFE
:10341000354A00210120FEF789FD344A002120466B
:10342000FEF784FD324801F0F5F84FF47A70FEF7AC
:103430002BFC274F274E3846FEF72AFA044640B1A8
:103440000228F8D00146304601F06CF8002CF2D189
:1034500002E0214801F0DEF802211D48FEF72EFAB5
:10346000014638B91D4801F0D5F81948FEF73FFA72
:10347000014620B1BDE8F840164801F053B8FEF708
:10348000F9FC1C490120FEF731FD1B4801F0C2F890
:103490004FF47A70FEF7F8FB2946184801F042F81D
:1034A0000122A9B20A48FEF739FA044648B914487D
:1034B00001F0B0F84FF47A70FEF7E6FB114BDC80B8
:1034C000F8BD0146D6E700BF5D9600086C9600087F
:1034D0008C0B00209D96000890960008B19600087D
:1034E000C2960008D0960008DF96000816930008E0
:1034F000F19600080A9700081A9700082B97000811
:1035000034970008640B002038B50546FEF7B2FC7E
:10351000FEF72DFD4FF6FF73034C28B2E380FFF753
:1035200031FFA07938BD00BF640B00202DE9F041C8
:1035300088B014220021804603A800F0EAFF4FF46F
:103540007A7200210DF10A00FFF71CFA01280446E7
:1035500003D0002008B0BDE8F081BDF80A00FFF7F5
:10356000D3FF07460028F4D10726BDF80A502346AA
:10357000C5EBC505ADB22A46414601940096A02090
:10358000FFF74CF823462A4603A98DE8C000A02087
:10359000FFF744F82A4603A9024800F0C3FF20467B
:1035A000D8E700BF2C9A000830B52B4C87B0182202
:1035B0000021684600F0ADFFE27A6AB3FEF75AFCDC
:1035C000264A00210120FEF7B1FC00210320FEF76E
:1035D0005FFCFEF7C0FC0423072203216846FFF7C7
:1035E00067FA012805461DD16846FCF7B1FD07289A
:1035F0002BD16846FFF79AFF01281ED11849FEF724
:1036000075FC40F6B830FEF73FFBFFF71BF9FEF7FD
:1036100031FC0123237103E0FFF7B4FA0128CDD078
:1036200007B030BDFEF726FCFEF7A1FC0D490120D6
:10363000FEF75CFC0C490320E1E7FEF71BFC0B499D
:103640002846FEF753FC0A49F5E7FEF713FCFEF7A0
:103650008EFC0849F4E700BF640B00203D9700088A
:10366000609700084C9700080B93000870970008BB
:10367000319300087F970008214A136801331360D3
:10368000204BDA8992B2BAB142F2E451DA89013AB6
:1036900092B2DA81DA8992B28A4206D14FF40051AD
:1036A000194A51614FF480511161DA8992B21AB905
:1036B0004FF48051144A516114490A680132F92AC1
:1036C00083BF00220A6001220A6088BF1A729A89A9
:1036D00001329A810E4A13680133B3F57A7F01D221
:1036E00013607047002111600A4A136801333B2BB5
:1036F000F6D91160084A138801339BB213807047D2
:10370000000B0020640B0020000C0140140B002073
:10371000080B0020100B0020040B00201FB58C7933
:103720004B788A7802944C79019409790091024986
:1037300000F078FF04B010BD909700082DE9F04329
:1037400000240226ADF5117DFEF794FBFEF70FFC79
:103750000194009601234FF68B7210A9A220FEF768
:103760005DFFBDF840506DBAADB2002D6CD0384948
:103770000120FEF7BBFB37490320FEF7B7FB364FAE
:1037800000264FF4007362028DE8480002F47E4286
:10379000012310A9A220FEF741FF3146282206A8E6
:1037A00000F0B7FE0723C4EBC402A2F5C06292B2D8
:1037B0000196009306A90123A220FEF72FFF06A978
:1037C0000846FFF7ABFF06A9244800F0ABFE012630
:1037D00040F20128DFF8989010AB334413F8011C35
:1037E000484600F09FFEF30602D1384600F012FF73
:1037F00001364645F0D101343846A4B200F00AFF44
:10380000A542BDD14FF47A70FEF73EFA2A4614491C
:1038100003A800F007FFFEF72DFB12490120FEF779
:1038200065FB032003A9FEF761FB40F6B830FEF705
:103830002BFAFFF707F8FEF71DFB01220A4B1A715E
:103840000DF5117DBDE8F08308493046EBE700BF78
:10385000B69500081894000829970008F893000806
:103860007F9500088E950008640B0020A395000842
:10387000CB95000808B5FFF785F9012801D1FFF7BE
:103880005DFF012008BD0A23B0FBF3F203FB120029
:1038900040EA0210C0B27047F8B501460079FFF760
:1038A000F2FF0446C878FFF7EEFF05468878FFF779
:1038B000EAFF06464878FFF7E6FF07460878FFF775
:1038C000E2FF00230B700123CB7000234F70887040
:1038D0000E714D718C71CB71F8BD013910B5014479
:1038E000441E8C4200D110BD6078FFF7CCFF04F875
:1038F000010FF6E7012913B5044603D1FEF744FC96
:1039000002B010BD0029FBD1FDF7D8FC0146684686
:10391000FEF73AFB08216846FFF7DFFF6B4603CB53
:1039200020606160ECE7000000232DE9F04140F2E7
:10393000DB566E4C6E4FDFF8C081ADF5067DA3817E
:10394000A389B34203D90DF5067DBDE8F081384661
:10395000FDF79EFF054640B10228F1D001464046E2
:1039600000F0E0FD002DEBD102E0624800F052FED5
:1039700001215F48FDF7A2FF054620B129465E48B8
:1039800000F0D0FDDFE740F2DB565C48584FDFF82F
:10399000688100F03FFEA581A389B342D3D83846A1
:1039A000FDF776FF054640B10228F5D001464046B6
:1039B00000F0B8FD002DEFD102E04E4800F02AFEE5
:1039C00002214B48FDF77AFF01460028D7D10DF1BF
:1039D0000E01012304AA4648FEF7FBF8014628B170
:1039E000092879D0444800F09DFD05E0E080444876
:1039F00000F010FEFFF724F83D48FDF778FF00289F
:103A0000A1D1404800F006FE01213948FEF78EF8AA
:103A10000446002864D13C4800F0FCFD4FF40073DC
:103A200025460DF11206324F338006AA00960DF19D
:103A30000D032A4401213846FEF740F8002851D0F2
:103A4000338801341D44ADB2C5F5007333809DF851
:103A50000D30002BE9D00026022305A98DE848008F
:103A60004FF68B720123A220FEF7D8FD01274FF4F9
:103A70000073BDF814408DE8880064BAA5B26A02EC
:103A80003B4602F47E4206A9A220FEF7C7FD31465E
:103A900006A8FFF72FFF0723C4EBC404A4F5C062F8
:103AA000009306A93B46019792B2A220FEF7B6FD0D
:103AB0007B2D9CBFED19ADB22B0A8DF8143002227C
:103AC000012305A98DE80C00A2204FF68B728DF81A
:103AD0001550FEF7A3FD36E70C4800F09BFD8BE781
:103AE00001464CE7A1B20A484AE700BF640B002038
:103AF0008C0B0020909600089D960008B196000857
:103B00001A97000889980008989800087898000883
:103B10000398000800B58BB005A80021FFF7EAFE66
:103B20009DF81A109DF8153002919DF819109DF816
:103B3000162001919DF8181005A80091074900F082
:103B400071FD074A00210320FEF7F0F905AA0021C4
:103B50000420FEF7AFF90BB05DF804FB1E950008DA
:103B60003D9500082DE9F04F954B8DB0DA7A9946D6
:103B7000002A6CD007AF00213846FFF7BBFE0821B2
:103B80003846FEF7E2FA00219DF81E300DF1140AC6
:103B90008DF814309DF81D308DF815309DF82030CB
:103BA0008DF816309DF821308DF817309DF82230B1
:103BB0008DF818301AF80100FFF765FE78540131CE
:103BC0000529F7D100249DF82010DFF8108202911A
:103BD0009DF81F109DF81D3001919DF81E109DF855
:103BE0001C2000913846774900F01CFDA8F80040E1
:103BF000FEF740F974490120FEF778F9734A21462F
:103C00000320FEF793F93A4621460420FEF752F9C5
:103C100021460420FEF73CF92646FEF79CF925468E
:103C2000A346B8F800309BB2032B17D9B8F8003080
:103C30009BB2032B40F2B380FEF71CF9FEF797F915
:103C400063490120FEF752F962490320A5E0FEF71F
:103C500099FF01288ED00DB0BDE8F08FFEF7E8FD8A
:103C600004283FD8DFE800F0034C7B6A8D00013464
:103C700024B2042D0DD8DFE805F00307093F410009
:103C8000182CA8BF002404E03C2CFAE7202CA8BF85
:103C900001240CAB2B4403F81C4C00211AF8010042
:103CA000FFF7F1FD785401310529F7D19DF8201077
:103CB0009DF81D3002919DF81F109DF81C20019168
:103CC0009DF81E10384600913E4900F0ABFC3A4684
:103CD00000210420FEF7EEF831460420FEF7D8F864
:103CE000FEF739F9FA20FDF7CFFF99F80A30002BDB
:103CF00097D0A8F800B094E70D2CC8E7642CC0E773
:103D0000013C24B2042DC4D8DFE805F003070B0FF3
:103D10001300002CB8BF1724BBE7002CB8BF3B240E
:103D2000B7E7002CD8BF1F24B3E7002CD8BF0C2462
:103D3000AFE7132CB8BF132424B2AAE7042DD1D8BF
:103D40000135EDB20CAB2B4413F81C4C6B1E032B4E
:103D5000A3D8DFE803F03012320212269DE7002DCF
:103D6000C0D0013DEDB20CAB2B4413F81C4C032D1D
:103D700093D8DFE805F0042002220A268DE72E46BC
:103D80008BE75046FFF788FD5046FEF7FDF9FEF73A
:103D900071F8FEF7ECF801200F49FEF7A7F840F69E
:103DA000B830FDF771FFFEF74DFDFEF763F8012314
:103DB00089F804304FE703266FE70D266DE700BF53
:103DC000640B00201E9500081B9900083D95000813
:103DD000A69400080B93000829990008040B002002
:103DE00038B5194C2378072B2CD8DFE803F00C10DA
:103DF00014181C20240401236372FEF74BFD0023DA
:103E00002370637038BDBDE83840FFF7CDBBBDE817
:103E10003840FEF7B7BFBDE83840FEF711BFBDE838
:103E20003840FFF727BDBDE83840FFF727B8BDE8A9
:103E30003840FFF797BE0025FEF704FDE572FEF758
:103E40001DFD657238BD00BF640B002010B5124C1B
:103E5000FEF7EEFC237923B1FFF7C2FF00232371A5
:103E600010BD012810D008D3042814D1FA20FDF782
:103E70000BFFBDE81040FFF7B3BF2378072B0AD034
:103E8000BDE81040FEF752BD2378072B03D0BDE8F4
:103E90001040FEF761BD10BD640B00200B4C80B5D7
:103EA00025460B4E637A43B9277937B9FFF73CFDB6
:103EB000337813B13770FFF72DFE2B7A002BF1D03A
:103EC00000232B72FFF7C2FFECE700BF640B00205A
:103ED000180B002010B500F091F8FFF78BF8FFF7F2
:103EE00079F8FFF77BF801211748FDF7DFF84FF469
:103EF0004070FCF74DFFFDF7DAFEFFF70EFAFFF713
:103F000027FAFFF711FAFFF791F8FEF795FB052066
:103F1000FDF7BAFEFFF7EAF9FFF7F8F9FFF7ACF89B
:103F2000FFF7EEF9FEF78EFC0023084CE372FEF774
:103F3000AFF90428A07206D1054800F06BFBBDE87C
:103F40001040FFF70FBE10BD00043000640B0020CE
:103F5000AB97000808B5FFF7BDFFFEF78FFCFFF732
:103F6000D9FDFFF79BFF000008B5FDF729FB642092
:103F7000FDF71EFB024AD36883F40053D36008BDEB
:103F800000100140DFF834D0002103E00C4B5B58F7
:103F9000435004310B480C4B42189A42F6D30B4A5B
:103FA00002E0002342F8043B094B9A42F9D300F0A7
:103FB00025F800F051FAFFF7CDFF704700500020C0
:103FC0003C9D000800000020E00A0020E00A0020DC
:103FD000E80B0020FEE77047FEE7FEE7FEE7FEE79E
:103FE000704770477047FFF747BB000008B592B2B3
:103FF000014800F0D0F908BD3C000020374B82B0EA
:104000001A6842F001021A605968354A0A405A603B
:104010001A6822F0847222F480321A601A6822F43C
:1040200080221A605A6822F4FE025A604FF41F027E
:104030009A600022009201921A6842F480321A605B
:104040001A6802F400320192009A01320092019A39
:104050001AB9009AB2F5A06FF2D11A6812F40032C0
:1040600018BF01220192019A012A05D04FF0006287
:104070001C4B9A6002B070471B4A116841F0100156
:104080001160116821F003011160116841F0020113
:1040900011605A685A605A685A605A6842F48062DD
:1040A0005A605A6822F47C125A605A6842F4E81244
:1040B0005A601A6842F080721A601A689201FCD540
:1040C0005A6822F003025A605A6842F002025A60AB
:1040D0005A6802F00C02082AFAD1C7E70010024021
:1040E0000000FFF800ED00E000200240114A124BF2
:1040F000516801F00C01042901D008290AD00F49A8
:10410000196052680E49C2F30312895C1A68CA40EA
:104110001A60704751685068C1F38341C00301F1D0
:10412000020102D407484143EAE750688003F9D40A
:104130000248F8E7001002406C04002000127A00E8
:104140005C04002000093D0010B540F225510446F2
:104150000068FDF705FA78B12068FDF7F3F9A38947
:10416000E2890133DBB292B2934205D0A28992B2C6
:10417000224482F81001A38140F227712068FDF7E4
:10418000EFF9E0B1638920689BB22344197C63890D
:104190000133DBB26381FDF7D1F940212068FDF7DF
:1041A000DBF92289638992B29BB29A4207D100223D
:1041B00040F227712068FDF7A9F9002363714FF4DD
:1041C00058712068FDF7CCF948B12068FDF7BAF9BD
:1041D00020684FF45871BDE81040FDF7E1B910BDFB
:1041E000F0B5504B046887B09C4205460E465CD142
:1041F0004FF400730327ADF80030182369464A488E
:104200008DF803308DF80270FCF7F8FE4FF48063F0
:10421000ADF800300423694643488DF80330FCF7BD
:10422000EDFE01214FF48040FCF7E2FF0C230296E3
:10423000002602A92046ADF81230ADF81460ADF8A2
:104240001060ADF80E60ADF80C60FDF7FDF80121CF
:104250002046FDF74FF925238DF805708DF80430C1
:10426000012701A88DF806608DF80770FCF79AFD0C
:10427000324640F227712046FDF748F940F22551B9
:104280002046FDF78DF93A4640F225512046FDF7CC
:104290003DF900234FF4FA722B81EA80AB816B81E8
:1042A000EB812B716B7107B0F0BD204B9C42F0D1BC
:1042B00001214FF48020FCF7A7FF4FF48063ADF895
:1042C000003018238DF803300323694618488DF811
:1042D0000230FCF793FE4FF40063ADF80030042386
:1042E000694613488DF80330FCF788FE0C230296CC
:1042F000002602A92046ADF81230ADF81460ADF8E2
:104300000C60ADF81060ADF80E60FDF79DF801216E
:104310002046FDF7EFF827238DF8043002238DF8AF
:1043200005309DE70038014000080140004800408A
:10433000000C014038B5012303710289438992B210
:104340009BB29A4204460D4610D1437973B980213D
:104350000068FDF7FBF848B129462068FDF7EEF844
:1043600040212068FDF7F8F8012038BD238901338A
:10437000DBB2628992B29342FBD0228940F227716C
:1043800092B222441574206823810122FDF7BEF801
:1043900001236371E8E72DE9F04180460E460C46A3
:1043A0008F18A51BBC42ADB206D014F8011B4046C5
:1043B000FFF7C0FF0028F4D12846BDE8F0818289CC
:1043C000C38992B29BB29A420AD0C3899BB203447A
:1043D00093F81021C3890133DBB2C38110B2704757
:1043E0004FF0FF30704738B50446FDF731FC054605
:1043F0002046FFF7E4FF002807DAFDF729FCE388F1
:10440000401B9842F4D34FF0FF3038BD2DE9F04106
:1044100080460E460C468F18A51BBC42ADB202D199
:104420002846BDE8F0814046FFF7DDFF0028F7DBB6
:1044300004F8010BF0E78389C089181AC0B27047ED
:104440000148FFF781BE00BF3C0000200148FFF794
:104450007BBE00BF4C02002070B500250C4E0D4CF9
:10446000A41BA410A54209D104F0C0FE00250A4EE9
:104470000A4CA41BA410A54205D170BD56F82530E6
:1044800098470135EEE756F8253098470135F2E7B1
:10449000349D0008349D0008349D0008389D0008B4
:1044A000044B054A1B681B6A002B08BF134693F890
:1044B00028017047DC05002070040020044B054AE9
:1044C0001B681B6A002B08BF1346D3F8EC0070472B
:1044D000DC0500207004002082B001B901A942B1BE
:1044E0004BB113780B601278101C18BF012002B07A
:1044F00070471046FBE76FF00100F8E710B5431E68
:104500000A44914200D110BD11F8014B03F8014F4C
:10451000F7E703460244934200D1704703F8011BBA
:10452000F9E700000FB40A4B13B51C6824B1A36966
:1045300013B9204603F016F905AB049AA16820468A
:10454000019301F095F802B0BDE8104004B0704747
:10455000DC05002030B5054689B008460C46FBF75F
:10456000F7FD284B0590069301231844079304ABED
:104570000193022304940390029325B1AB6913B90C
:10458000284603F0EFF8AB69AC6813B9284603F08E
:10459000E9F81D4B9C422AD16C68636EDB0705D499
:1045A000A389980502D4A06D03F0ECFBB4F90C309C
:1045B000990406D443F40053A381636E23F400539B
:1045C0006366284601AA214603F060FA636E00285C
:1045D00014BF4FF0FF350A25DA0705D4A3899B05E0
:1045E00002D4A06D03F0CFFB284609B030BD074BC5
:1045F0009C4201D1AC68D0E7054B9C4208BFEC68F7
:10460000CBE700BFAF960008EC9B00080C9C0008AD
:10461000CC9B0008024B01461868FFF79BBF00BF08
:10462000DC0500200EB44FF4027100B59CB0ADF86B
:1046300014106FF00041049107914FF6FF711DAB0C
:1046400002900690084853F8042BADF81610006845
:1046500002A9019300F03CF80022029B1A701CB0E2
:104660005DF804EB03B07047DC050020024610B58E
:1046700013461C780132002CFAD1013B11F8012BB2
:1046800003F8012F002AF9D110BD034611F8012BC0
:1046900003F8012B002AF9D17047F0B5037833B144
:1046A000034618465E1C1B7833B91846F0BD0B78DC
:1046B000002B18BF0020F0BD4D1E441E15F8012F21
:1046C000002AF3D014F8017F33469742F6D0E8E78A
:1046D0002DE9F04FBFB0894615461F46824603F0CC
:1046E00041FB036818461193FBF732FDB9F80C3013
:1046F0000A901B0618D5D9F81030ABB940215046A6
:1047000003F0B6FBC9F80000C9F8100048B90C2343
:10471000CAF800304FF0FF330B930B983FB0BDE861
:10472000F08F4023C9F8143000232EAC219423933A
:104730002293099507930D930E93159314930B935E
:1047400012931393099D2B4613F8012B12B1252ABE
:1047500040F08380099BEE1A0DD084E84800239B2B
:1047600033442393229B0133072B229377DC0834B5
:104770000B9B33440B932B78002B00F025870023F1
:10478000691C1A464FF0FF3B1D460A208DF8673022
:104790000C934E1C097809960691069920395829E0
:1047A00000F21484DFE811F0A50012041204AA003C
:1047B000120412041204120412041204AD00650063
:1047C0001204B500B8001204D500D800D800D800F3
:1047D000D800D800D800D800D800D800120412049D
:1047E0001204120412041204120412041204120419
:1047F0000C012201120422011204120412041204F8
:10480000EB00120412043C031204120412041204FA
:104810001204A403120412048500120412041204E8
:104820001204120412041204120412041204FE00F0
:104830006B00220122012201EE006B00120412041F
:10484000F10012041E033E037203F80012048303F6
:104850001204A60312041204BE031D4673E721AA24
:104860004946504604F0EBF9002840F08E862EAC05
:104870007EE701232B2209998BE70F46FBE70BB15B
:104880008DF86720AE0640F1A180073727F00707B3
:1048900007F108030893D7E90067002E77F10003BA
:1048A00005DA2D23764267EB47078DF86730012341
:1048B000C7E20BB18DF86720A04B1593AB0640F112
:1048C0003683073727F0070707F108030893D7E96E
:1048D0000067E8070BD556EA070308D030238DF8A8
:1048E00068309DF8183045F002058DF869300223D4
:1048F000A4E2002ABFD101232022BCE745F0010534
:10490000B9E73E68391D002E0C96B6DA0F4676429E
:104910000C9645F00405AEE709994E1C09782A2942
:10492000069110D04FF0000B0996069930390929ED
:104930003FF633AF00FB0B1B09990E4616F8011B1F
:1049400006910996F1E73968099641EAE17B043757
:1049500091E745F080058EE700210C9106990C9EA9
:10496000303900FB06110C9109990E4616F8011B0F
:1049700006910699099630390929EFD90DE745F0D6
:10498000080578E745F0400575E7099909786C292D
:1049900005D109990131099145F020056BE745F0F2
:1049A000100568E700263B1D08933B688DF867609B
:1049B0008DF890304FF0010B37460DF190081CE157
:1049C0000BB18DF8672045F010055BE715F0100F6F
:1049D00007F1040303D03E680893F7175DE73E68CC
:1049E00015F0400F089318BF36B2F6E70BB18DF8FB
:1049F0006720073727F0070707F1080308933B688C
:104A00004FF0FF320D937B680D9F0E930E9B38463F
:104A100023F0004631464A4BFBF7F4FF002840F0F4
:104A2000DC854FF0FF32464B38463146FBF7CCFF72
:104A3000002840F0D285129A139B0D980E99FBF72F
:104A4000B9FF10B12D238DF867303E4B3E4A0699D1
:104A50004FF0030B4729CCBF90469846002625F01F
:104A600080053746C9E0BBF1FF3F26D0069B23F007
:104A70002003472B04D1BBF1000F08BF4FF0010BFF
:104A800045F4807317930E9B1F1E0D9BA8BF1097B4
:104A90000F93BDBF3B4603F1004310930023B8BF03
:104AA0002D231693069B23F02007462F08D0452F71
:104AB00042D10BF10106022304E04FF0060BDFE7C1
:104AC0005E4603231FAA04921CAA03921BAA029209
:104AD0008DE848000F9A109B504601F049FF472F80
:104AE000804602D1E80740F1858508EB0603462F92
:104AF000079311D198F80030302B09D1129A139BEB
:104B00000F981099FBF74CFF10B9C6F101061B96E0
:104B1000079A1B9B1A440792129A139B0F9810999D
:104B2000FBF73EFF90B930221F9B079999420FD99E
:104B3000591C1F911A70F7E75E46BCE75A9A0008A5
:104B4000FFFFEF7F4A9A00084E9A0008079B1F93C9
:104B50001F9B472FA3EB0803079340F000811B9B8B
:104B6000D91C02DB9B4580F22681069B023B069303
:104B70001B9A9DF81810531E002BA8BF2B221B93C5
:104B8000BCBFC2F101032D22092B8DF874108DF8E2
:104B9000752040F300810A260DF1830293FBF6F0A5
:104BA00006FB1033092803F1300302F8013C02F13F
:104BB000FF31034600F3E880303301F8013C023A4C
:104BC0000DF176030DF1830082421946C0F0DE80BC
:104BD000079A1DABCB1A012A149303EB020B02DCDC
:104BE00015F0010702D000270A9B9B44169B13B1C6
:104BF0002D238DF867300026179D5E453346B8BFDC
:104C00005B460F939DF8673013B10F9B01330F93F1
:104C100015F0020316931EBF0F9B02330F9315F07E
:104C20008403179318D10C9B0F9A9B1A002B109397
:104C300012DD109B102BAB4B236000F3D981109B2E
:104C4000109A6360239B13442393229B0133072B09
:104C5000229300F3E68108349DF8673073B10DF1BB
:104C60006703236001236360239B01332393229B0B
:104C70000133072B229300F3DE810834169B6BB1BE
:104C80001AAB236002236360239B02332393229B8E
:104C90000133072B229300F3D8810834179B802B14
:104CA00018D10C9B0F9A9B1A002B109312DD109BAE
:104CB000102B8D4B236000F3D281109B109A636000
:104CC000239B13442393229B0133072B229300F34E
:104CD000DF810834A6EB0B06002E0FDD824B102E71
:104CE000236000F3DF81229B239801336660072B4A
:104CF00006442396229300F3EC810834EB0500F17F
:104D0000F281239B84E800095B442393229B0133B7
:104D1000072B229340F3198421AA4946504603F0F9
:104D20008EFF002840F031842EAC6B0700F1108418
:104D30000B9B0C9A0F998A42ACBF9B185B180B9384
:104D4000239B3BB121AA4946504603F078FF002837
:104D500040F01B840023089F22932EACF2E4069BB4
:104D6000652B7FF705AF069B662B24D11B9B002B81
:104D700019DDBBF1000F01D1EA0702D50A9A1344ED
:104D80005B441B9F9B4631E70A4607E712F8011B6D
:104D900003F8011B18E7302213448DF876208DF8B4
:104DA00077301EA914E7BBF1000F01D1EB0715D531
:104DB0000A9B0133E4E71B9A079B9A4206DBEF0745
:104DC0000ED50A9B134467220692DAE7079B0A99DD
:104DD000002A0B44F7DCC2F10102F3E70123D0E71C
:104DE0001346F0E70BB18DF8672015F0200F07F19F
:104DF000040308D00B993A68CE1708463146C2E939
:104E000000011F469EE4EE0603D53A680B99116037
:104E1000F7E76806F9D53A68BDF82C101180F0E77D
:104E200045F0100515F0200322D0073727F00707BB
:104E300007F108030893D7E90067002300228DF8E3
:104E40006720BBF1FF3F00F0DB8325F080020F926B
:104E500056EA070240F0D983BBF1000F00F0AA80A8
:104E6000012B76D0022B00F0918000260027D2E3A0
:104E70003A1D15F01001089202D03E680027DDE7C8
:104E800015F04003F9D03E880027D6E73B1D089374
:104E9000302378228DF86830144B3E681593002734
:104EA00045F002058DF8692002230692C6E7002628
:104EB0003B1DBBF1FF3F0893D7F800808DF867607A
:104EC0000AD05A463146404603F0DEF9002800F089
:104ED0008D80A0EB080BC4E54046FBF739F983460B
:104EE000BFE500BF7E9A00088E9A00086B9A000802
:104EF00045F01005A90609D5073727F0070707F180
:104F000008030893D7E90067012397E73B1D15F0D5
:104F1000100F089301D03E6802E06A06FBD53E8878
:104F20000027F1E70BB18DF86720A34BC5E43B1DCB
:104F300015F0100F089301D03E6802E06E06FBD515
:104F40003E880027C5E4434666E3002F08BF0A2ECB
:104F500005D230360DF1F80808F8416D77E30DF110
:104F6000B808304639460A220023FBF789FD303263
:104F700008F8012D0023304639460A22FBF780FD50
:104F800006460F4656EA0703EBD160E300260027EA
:104F90000DF1B808159A06F00F03D35C3A0908F82A
:104FA000013D330943EA07731E46174656EA0703D5
:104FB000F0D14CE33BB9EA0705D530230DF1F808F1
:104FC00008F8413D43E30DF1B80840E30BB18DF81B
:104FD0006720069B002B00F0F78200269DF8183012
:104FE0008DF867608DF890300897E3E4064638E561
:104FF00010236360239B10332393229B0133072BE1
:10500000229304DC0834109B103B109311E621AA74
:105010004946504603F013FE002840F0B6822EACFD
:10502000F1E721AA4946504603F009FE002840F066
:10503000AC822EAC10E621AA4946504603F0FFFD93
:10504000002840F0A2822EAC18E621AA494650461C
:1050500003F0F5FD002840F098822EAC1EE61023E8
:105060006360239B10332393229B0133072B2293EE
:1050700004DC0834109B103B109318E621AA494623
:10508000504603F0DCFD002840F07F822EACF1E7B3
:1050900021AA4946504603F0D2FD002840F075820F
:1050A0002EAC17E610236360239B10332393229BBF
:1050B0000133072B229302DC0834103E0EE621AAAE
:1050C0004946504603F0BBFD002840F05E822EACFE
:1050D000F3E721AA4946504603F0B1FD002840F00D
:1050E00054822EAC0AE6069B652B40F3A981129AE6
:1050F000139B0D980E99FBF753FC002862D02F4BA1
:10510000236001236360239B01332393229B01339C
:10511000072B229325DC08341B9B079A934202DB62
:10512000EE077FF502AE119B0A9A23600A9B63602B
:10513000239B13442393229B0133072B22931ADCD6
:105140000834079B5E1E002E7FF7EFAD4FF010086E
:105150001B4F102E276018DC6660239B1E4423968D
:10516000D4E521AA4946504603F069FD002840F0E5
:105170000C822EACD0E721AA4946504603F05FFDD1
:10518000002840F002822EACDBE7239BC4F80480A9
:1051900010332393229B0133072B229302DC083424
:1051A000103ED6E721AA4946504603F048FD0028A4
:1051B00040F0EB812EACF3E76B9A00087C9A000874
:1051C0008E9A00081B9B002B7ADC9B4B23600123EB
:1051D0006360239B01332393229B0133072B22938C
:1051E00044DC08341B9B23B9079B13B9E8077FF500
:1051F0009CAD119B0A9A23600A9B6360239B134416
:105200002393229B0133072B229339DC04F10803FB
:105210001B9E002E19DA1024884F7642102E1F6034
:1052200038DC239A5E601644229A23960132072ABC
:1052300003F10803229208DD21AA4946504603F0F3
:10524000FEFC002840F0A1812EAB079A07995A6016
:10525000239AC3F800800A442392229A0132072A33
:1052600022923FF759AD03F108045EE521AA4946B1
:10527000504603F0E4FC002840F087812EACB1E7F3
:1052800021AA4946504603F0DAFC002840F07D810F
:105290002EABBDE7239A5C6010322392229A013232
:1052A000072A229202DC0833103EB7E721AA4946BA
:1052B000504603F0C4FC002840F067812EABF3E7B2
:1052C000079BBB42A8BF3B46002B1E460BDD63601D
:1052D000239BC4F8008033442393229B0133072B84
:1052E00022935FDC0834002EB4BF3E46BE1B002E66
:1052F0000FDDDFF848B1102EC4F800B05CDC239B52
:1053000066601E44229B23960133072B22936ADC9E
:1053100008341B9B079A934201DBE9070DD5119BCB
:105320000A9A23600A9B6360239B13442393229B66
:105330000133072B229360DC0834079B079ADE1B9E
:105340001B9BD31A9E42A8BF1E46002E0BDD239B3B
:10535000474433442393229B27600133072B666025
:10536000229354DC08341B9B079A002EA2EB030304
:10537000B4BF1E469E1B002E7FF7D7AC4FF010081F
:105380002E4F102E27607FF7E7AE239BC4F80480D2
:1053900010332393229B0133072B229341DC0834E3
:1053A000103EEEE721AA4946504603F048FC00288B
:1053B00040F0EB802EAC96E710236360239B103304
:1053C0002393229B0133072B229302DC0834103EE7
:1053D00091E721AA4946504603F031FC002840F0ED
:1053E000D4802EACF3E721AA4946504603F027FCAF
:1053F000002840F0CA802EAC8BE721AA49465046CF
:1054000003F01DFC002840F0C0802EAC95E721AAD7
:105410004946504603F013FC002840F0B6802EACFD
:10542000A1E721AA4946504603F009FC002840F0B4
:10543000AC802EACB4E700BF7C9A00088E9A0008BE
:10544000079B012B01DCEA0776D501236360239BD0
:10545000C4F8008001332393229B0133072B22934E
:1054600036DC0834119B0A9A23600A9B6360239BF5
:1054700013442393229B0133072B229331DC0834FE
:10548000139B129A0D980E99FBF78AFA079B5E1EE2
:1054900000282FD108F1010384E84800239B079AD4
:1054A000013B13442393229B0133072B22934ADDB4
:1054B00021AA4946504603F0C2FB002865D12EAC14
:1054C0001DAB2360149B149A6360239B13441CE45C
:1054D00021AA4946504603F0B2FB002855D12EAC14
:1054E000C0E721AA4946504603F0A9FB00284CD149
:1054F0002EACC5E7002EE3DD4FF01008584F102EFC
:10550000276004DC239B66601E442396CBE7239B25
:10551000C4F8048010332393229B0133072B22937A
:1055200002DC0834103EEAE721AA4946504603F05F
:1055300086FB50BB2EACF5E701236360239BC4F8C8
:1055400000800133AEE70834BAE70834FFF7EDBB5B
:105550000C9B0F9A9D1A002D7FF7EAAB1026414B4A
:10556000102D23601BDC239B65601D44229B23952B
:105570000133072B22937FF7DBAB21AA4946504624
:1055800003F05DFB00283FF4D3ABB9F80C3013F007
:10559000400F0B9B18BF4FF0FF33FFF7BDB8239BA5
:1055A000666010332393229B0133072B229302DC86
:1055B0000834103DD3E721AA4946504603F03FFB8B
:1055C0000028E2D12EACF4E7239B002BDDD021AAEA
:1055D0004946504603F033FBD7E70D9A0E9B0D98D2
:1055E0000E99FBF70FFA00283FF43DAA1E4B1F4A05
:1055F000FFF72DBA1F9BA3EB08030793FFF7AFBA82
:1056000056EA07020F953FF42BAC012B3FF49DACFB
:10561000022B3FF4BDAC2EABF10841EA4771F8080C
:1056200006F0070207460E46303256EA070103F13C
:10563000FF3803F8012C7FF486AC0F99C90706D513
:10564000302A04D0302208F8012CA3F102082EAB36
:105650005E460F9DA3EB080B0027FFF7CEBA00BFF5
:105660008E9A00087E9A0008529A0008569A0008FE
:105670002DE9F04FBFB00D4616461C461F46814629
:1056800002F070FB036818461193FAF761FD0B9066
:10569000B9F1000F05D0D9F8183013B9484602F017
:1056A00061F88F4B9D422CD1D9F804506B6ED8070E
:1056B00005D4AB89990502D4A86D02F063FBB5F956
:1056C0000C309A0406D443F40053AB816B6E23F480
:1056D00000536B66AB891B0701D52B69EBB92946D3
:1056E000484601F049F8C0B16B6ED80705D4AB89C4
:1056F000990502D4A86D02F046FB4FF0FF330C93DE
:1057000023E0784B9D4202D1D9F80850CEE7764B82
:105710009D4208BFD9F80C50C8E7AB8903F01A02C4
:105720000A2A16D1B5F90E20002A12DB6A6ED207BA
:1057300004D49F0502D4A86D02F025FB234632460F
:105740002946484600F0CAFF0C900C983FB0BDE8CF
:10575000F08F00232EAC2194239322930996079374
:105760000E930F93159314930C9312931393099E16
:10577000334613F8012B12B1252A40F08480099B8F
:10578000B6EB03080DD084E80801239B4344239320
:10579000229B0133072B229377DC08340C9B434474
:1057A0000C933378002B00F03F8700234FF0FF3B32
:1057B0001A469A460A2001368DF867300D93711CFF
:1057C00009913178069106992039582900F22484EC
:1057D000DFE811F0AE0022042204B3002204220408
:1057E0002204220422042204B60065002204BE0022
:1057F000C1002204DE00E100E100E100E100E1007F
:10580000E100E100E100E10022042204220422047C
:1058100022042204220422042204220415012B0162
:1058200022042B012204220422042204F400220474
:105830002204490322042204220422042204B00385
:10584000220422048C0022042204220422042204C2
:105850002204220422042204220407016B002B01EB
:105860002B012B01F7006B0022042204FA00220412
:1058700029034B037F030101220490032204B20396
:1058800022042204CC031E4672E721AA2946484678
:1058900003F04FFA002840F0A3862EAC7EE70123E8
:1058A0002B22099E8BE70F46FBE70BB18DF8672093
:1058B0001AF0200F00F0A980073727F0070707F13B
:1058C00008030893D7E90067002E77F1000305DA93
:1058D0002D23764267EB47078DF867300123D3E22B
:1058E000EC9B00080C9C0008CC9B00080BB18DF8C9
:1058F0006720A24B1AF0200F159300F03C83073766
:1059000027F0070707F108030893D7E900671AF0A3
:10591000010F0BD056EA070308D030238DF868300A
:105920009DF818304AF0020A8DF869300223A8E287
:10593000002AB6D101232022B3E74AF0010AB0E7DA
:105940003E68391D002E0D96ADDA0F4676420D9653
:105950004AF0040AA5E709994E1C09782A290691FC
:1059600010D04FF0000B09960699303909293FF6FF
:105970002AAF00FB0B1B09990E4616F8011B069176
:105980000996F1E73968099641EAE17B043788E72F
:105990004AF0800A85E700210D9106990D9E303965
:1059A00000FB06110D9109990E4616F8011B069190
:1059B0000699099630390929EFD904E74AF0080A0F
:1059C0006FE74AF0400A6CE7099909786C2905D11C
:1059D0000999013109914AF0200A62E74AF0100A58
:1059E0005FE700263B1D08933B688DF867608DF8E4
:1059F00090304FF0010B0A960DF1900820E10BB1A9
:105A00008DF867204AF0100A52E71AF0100F07F1DC
:105A1000040303D03E680893F71755E73E681AF071
:105A2000400F089318BF36B2F6E70BB18DF8672028
:105A3000073727F0070707F1080308933B684FF083
:105A4000FF320E937B680E9F0F930F9B384623F017
:105A5000004631464A4BFAF7D5FF002840F0F18561
:105A60004FF0FF32464B38463146FAF7ADFF00287B
:105A700040F0E785129A139B0E980F99FAF79AFF58
:105A800010B12D238DF867303E4B3F4A06994FF0F9
:105A9000030B4729CCBF9046984600262AF0800A7F
:105AA0000A96CDE0BBF1FF3F26D0069B23F02003F2
:105AB000472B04D1BBF1000F08BF4FF0010B4AF494
:105AC000807317930F9B1F1E0E9BA8BF10970A93FE
:105AD000BDBF3B4603F1004310930023B8BF2D2305
